:0400000065EF00F0B8
:100008004D82FACF01F0FBCF02F0E9CF03F0EACF3F
:1000180004F0E1CF05F0E2CF06F0D9CF07F0DACF50
:1000280008F0F3CF09F0F4CF0AF0F6CF0BF0F7CFD2
:100038000CF0F8CF0DF0F5CF0EF04DC00FF04EC01C
:1000480010F04FC011F050C012F0F2BC9DAC05D0BA
:100058009EAC03D0F4EC04F00ED0F2BC9DA805D001
:100068009EA803D083EC04F006D0F2BC9DAA03D06E
:100078009EBA9AEC04F012C050F011C04FF010C0B4
:100088004EF00FC04DF00EC0F5FF0DC0F8FF0CC0CC
:10009800F7FF0BC0F6FF0AC0F4FF09C0F3FF08C062
:1000A800DAFF07C0D9FF06C0E2FF05C0E1FF04C0C0
:1000B800EAFF03C0E9FF02C0FBFF01C0FAFF4D924F
:0600C8001100C4EF04F07A
:100300000001000A006400E8031027456C207661B4
:100310006C6F722064656C206164632065733A20A1
:1003200025640D00456C2076616C6F722064652039
:1003300074656D702065733A2025640D0000210EF0
:10034000246E000E256E7DD0250E2A18D8B404D058
:100350002A50EDEC04F075D0000E266E1FC0F6FF9B
:1003600020C0F7FF1F4A202A0800F5CF2AF02A50A4
:10037000000AD8B41200640AD8B403D00D0AD8A475
:1003800060D024C0D9FF25C0DAFFDECF28F0DDCF52
:1003900029F0020E2426000E252229AE06D0030ED7
:1003A0002612286C291ED8B0292A010E2A6E050EA5
:1003B0002A18D8B412D02A50020D010EF324F66E7A
:1003C000030EF420F76E0900F550285C0900F55083
:1003D0002958D8A002D02A2AEAD726C023F0030E33
:1003E0002316D8B403D02D0EEDEC04F02AC027F06C
:1003F00024D02750020D010EF324F66E030EF420D4
:10040000F76E0900F5CF15F00A00F5CF16F028C0F9
:1004100013F029C014F0CAEC03F013C01AF014C092
:100420001BF0000E1D6E0A0E1C6EF3EC03F01A504A
:10043000300F2A6E2A50EDEC04F027062728D8A4A6
:10044000D8D71FC0F6FF20C0F7FF1F4A202A080098
:10045000F5CF2AF02A50D8B4120076D730C032F047
:10046000336A346A2F34323601E33380325000016C
:10047000656F6551D8A409D0000E2E6E000E2F6E48
:10048000000E306E000E316E1200170E326E2EC04E
:1004900033F02FC034F030C035F03228366E04D03F
:1004A000D890353234323332362EFAD733500001F9
:1004B000606F2F8EFF0E2E16FF0E2F16000E3016B9
:1004C0002E50616F2F50626F3050636F646B8E0ED1
:1004D000655F65AF16D06551800A8F0FD8B009D01F
:1004E000000E2E6E000E2F6E000E306E000E316E5E
:1004F0001200D8906433633362336133653FF9D7B8
:1005000015D0170E65650FD0000E2E6E000E2F6EE3
:10051000000E306E000E316E1200D89061376237D7
:100520006337643765076551D8A4F7D76051D8B4ED
:1005300008D0641F631F621F616D000E6223632376
:10054000642361C02EF062C02FF063C030F064C03D
:1005500031F0120021C025F0266A276A20342536A2
:1005600001E326802550286E2850D8A407D0000E1D
:100570001F6E000E206E000E216E120024C025F0AA
:10058000266A276A2334253601E3268025502D6EFE
:100590002D50D8A407D0000E1F6E000E206E000E46
:1005A000216E12002D507B0F282621C02DF02450E3
:1005B0002D1A800E2D16208E238EFF0E2216FF0E72
:1005C0002316000E2416000E296E000E2A6E000E51
:1005D0002B6E070E2C6E1FA006D02250292623500A
:1005E0002A2224502B22D890213220321F32D89038
:1005F0002236233624362C2EEED7090E2C6E1FA061
:1006000006D02250292623502A2224502B22D8906B
:10061000213220321F32D8902B322A3229322C2E0E
:10062000EED729C013F02AC014F02BC015F028C053
:1006300016F02DC017F024EC03F013C01FF014C007
:1006400020F015C021F012001650D8B405D0135078
:1006500014101510D8A40CD0000E136E000E146EDA
:10066000000E156E1200162AD8901532143213326D
:10067000000E1314186E000E1414196EFE0E1514CD
:100680001A6E185019101A10D8B40CD0ECD7162ABC
:10069000010E1326000E1422000E1522D8901532DA
:1006A00014321332000E1314186E000E1414196E47
:1006B000FF0E15141A6E185019101A10D8B406D05F
:1006C000E6D71606D89013361436153614BE03D066
:1006D000020E1660F6D716A0149ED8901632165049
:1006E00015121750D8A4158E13C013F014C014F0AF
:1006F00015C015F01200DDEC04F0F28EF28CF2EC75
:1007000004F0040E4DEC04F013C06AF014C06BF05A
:100710000B0E1F6E030E206E6AC021F06BC022F01C
:100720009FEC01F0000E226EFA0E236E3E0E246E38
:100730006AC01BF06BC01CF031EC04F01BC01FF052
:100740001CC020F01DC021F0AAEC02F01FC02EF04A
:1007500020C02FF021C030F02EEC02F02EC068F047
:100760002FC069F0240E1F6E030E206E68C021F0AA
:1007700069C022F09FEC01F0150E0001676F4B0E6F
:10078000666FBE0EE82EFED7662FFCD7672FFAD70E
:1007900000F0B5D7000E196E000E186E1550161029
:1007A000D8B41CD0010E176E04D0D890153616366A
:1007B000172A16AEFAD7D890183619361550135C8A
:1007C00016501458D8A005D01550135E1650145A60
:1007D0001880D89016321532172EEDD718C013F0A6
:1007E00019C014F012001C501D10D8B418D0010EFE
:1007F0001E6E04D0D8901C361D361E2A1DAEFAD7A8
:100800001C501A5C1D501B58D8A004D01C501A5EF6
:100810001D501B5AD8901D321C321E2EF1D71AC003
:100820001AF01BC01BF01200136E4A50D8B4FDD74B
:100830009DB803D013C0ADFF12D09D984C50010D50
:100840003F0EF324D96E000EF420DA6E13C0DFFFE2
:100850004C2A070E4C6402D0000E4C6E4A069D884E
:100860001200000E1E6E1CAE06D01B6C1C1ED8B0F3
:100870001C2A010E1E6E1BC013F01CC014F0156A5A
:100880008E0E166E1EC017F024EC03F013C01BF082
:1008900014C01CF015C01DF01200176E17C015F023
:1008A00015461546C2501518C30B1518C26EC280E6
:1008B0000D0EE82EFED700F0C282C2B2FED7C450A1
:1008C000166E156AC3501524136E000E1620146E92
:1008D00012009D9A9D98080EB86E900EAB6E200E79
:1008E000AC6E330EAF6E000EB06E000E4C6E000E8E
:1008F0004B6E080E4A6E000E496E000E486E000EDA
:10090000476E9D8A1200080E4A6012D04B50010DAE
:100910003F0EF324D96E000EF420DA6EDF50AD6E78
:100920004B2A070E4B6402D0000E4B6E4A2A12006F
:100930009D981200ABA202D0AB98AB884950010D34
:10094000370EF324D96E000EF420DA6EAECFDFFF3F
:10095000492A070E496402D0000E496E472A120048
:10096000000E896E000E8A6E000E8B6E300E926E37
:10097000700E936E9468100E7E6E000E7F6E700E79
:10098000786E370E776E120000EE37F0160EEE6AB4
:10099000E806FDE14D904D92000EF86E00017BEFF0
:1009A00003F0010EC26E000EC16E870EC06E000E07
:1009B000C36E000EC46E9D8C1200B0EC04F0E6EC29
:1009C00004F0D1EC04F069EC04F01200600ED36E78
:1009D000000E9B6E9BAC1200FDD7146E145014ECED
:0C09E00004F01200C28212009E9C120063
:020000040020DA
:08000000FFFFFFFFFFFFFFFF00
:020000040030CA
:0E00000000B93E1EFF8085FF03C003E00340F1
:00000001FF
